{
    "_format": "hh-sol-artifact-1",
    "contractName": "WalandaSplitter",
    "sourceName": "contracts/Walanda.sol",
    "abi": [
        {
            "inputs": [],
            "stateMutability": "nonpayable",
            "type": "constructor"
        },
        {
            "anonymous": false,
            "inputs": [
                {
                    "indexed": true,
                    "internalType": "uint256",
                    "name": "expenseId",
                    "type": "uint256"
                },
                {
                    "indexed": false,
                    "internalType": "address",
                    "name": "contributor",
                    "type": "address"
                },
                {
                    "indexed": false,
                    "internalType": "uint256",
                    "name": "amount",
                    "type": "uint256"
                }
            ],
            "name": "ContributionMade",
            "type": "event"
        },
        {
            "anonymous": false,
            "inputs": [
                {
                    "indexed": false,
                    "internalType": "uint256",
                    "name": "id",
                    "type": "uint256"
                },
                {
                    "indexed": false,
                    "internalType": "address",
                    "name": "creator",
                    "type": "address"
                },
                {
                    "indexed": false,
                    "internalType": "string",
                    "name": "name",
                    "type": "string"
                },
                {
                    "indexed": false,
                    "internalType": "string",
                    "name": "description",
                    "type": "string"
                },
                {
                    "indexed": false,
                    "internalType": "uint256",
                    "name": "targetAmount",
                    "type": "uint256"
                }
            ],
            "name": "ExpenseCreated",
            "type": "event"
        },
        {
            "anonymous": false,
            "inputs": [
                {
                    "indexed": false,
                    "internalType": "uint256",
                    "name": "expenseId",
                    "type": "uint256"
                }
            ],
            "name": "ExpenseSettled",
            "type": "event"
        },
        {
            "anonymous": false,
            "inputs": [
                {
                    "indexed": false,
                    "internalType": "uint256",
                    "name": "expenseId",
                    "type": "uint256"
                },
                {
                    "indexed": false,
                    "internalType": "address",
                    "name": "member",
                    "type": "address"
                }
            ],
            "name": "MemberAdded",
            "type": "event"
        },
        {
            "inputs": [
                {
                    "internalType": "uint256",
                    "name": "_expenseId",
                    "type": "uint256"
                },
                {
                    "internalType": "address",
                    "name": "_member",
                    "type": "address"
                }
            ],
            "name": "addMember",
            "outputs": [],
            "stateMutability": "nonpayable",
            "type": "function"
        },
        {
            "inputs": [
                {
                    "internalType": "uint256",
                    "name": "_expenseId",
                    "type": "uint256"
                },
                {
                    "internalType": "uint256",
                    "name": "_amount",
                    "type": "uint256"
                }
            ],
            "name": "contribute",
            "outputs": [],
            "stateMutability": "payable",
            "type": "function"
        },
        {
            "inputs": [
                {
                    "internalType": "uint256",
                    "name": "",
                    "type": "uint256"
                },
                {
                    "internalType": "address",
                    "name": "",
                    "type": "address"
                }
            ],
            "name": "contributions",
            "outputs": [
                {
                    "internalType": "uint256",
                    "name": "",
                    "type": "uint256"
                }
            ],
            "stateMutability": "view",
            "type": "function"
        },
        {
            "inputs": [
                {
                    "internalType": "string",
                    "name": "_name",
                    "type": "string"
                },
                {
                    "internalType": "string",
                    "name": "_description",
                    "type": "string"
                },
                {
                    "internalType": "uint256",
                    "name": "_targetAmount",
                    "type": "uint256"
                },
                {
                    "internalType": "address[]",
                    "name": "_members",
                    "type": "address[]"
                }
            ],
            "name": "createExpense",
            "outputs": [],
            "stateMutability": "nonpayable",
            "type": "function"
        },
        {
            "inputs": [],
            "name": "expenseId",
            "outputs": [
                {
                    "internalType": "uint256",
                    "name": "",
                    "type": "uint256"
                }
            ],
            "stateMutability": "view",
            "type": "function"
        },
        {
            "inputs": [
                {
                    "internalType": "uint256",
                    "name": "",
                    "type": "uint256"
                }
            ],
            "name": "expenses",
            "outputs": [
                {
                    "internalType": "uint256",
                    "name": "id",
                    "type": "uint256"
                },
                {
                    "internalType": "address",
                    "name": "creator",
                    "type": "address"
                },
                {
                    "internalType": "string",
                    "name": "name",
                    "type": "string"
                },
                {
                    "internalType": "string",
                    "name": "description",
                    "type": "string"
                },
                {
                    "internalType": "uint256",
                    "name": "targetAmount",
                    "type": "uint256"
                },
                {
                    "internalType": "uint256",
                    "name": "contributedAmount",
                    "type": "uint256"
                },
                {
                    "internalType": "uint256",
                    "name": "contributionPerMember",
                    "type": "uint256"
                },
                {
                    "internalType": "bool",
                    "name": "settled",
                    "type": "bool"
                }
            ],
            "stateMutability": "view",
            "type": "function"
        },
        {
            "inputs": [
                {
                    "internalType": "uint256",
                    "name": "_expenseId",
                    "type": "uint256"
                },
                {
                    "internalType": "address",
                    "name": "_address",
                    "type": "address"
                }
            ],
            "name": "isMemberOfExpense",
            "outputs": [
                {
                    "internalType": "bool",
                    "name": "",
                    "type": "bool"
                }
            ],
            "stateMutability": "view",
            "type": "function"
        },
        {
            "inputs": [],
            "name": "owner",
            "outputs": [
                {
                    "internalType": "address",
                    "name": "",
                    "type": "address"
                }
            ],
            "stateMutability": "view",
            "type": "function"
        },
        {
            "inputs": [
                {
                    "internalType": "uint256",
                    "name": "_expenseId",
                    "type": "uint256"
                },
                {
                    "internalType": "uint256",
                    "name": "_withdrawAmount",
                    "type": "uint256"
                }
            ],
            "name": "settleExpense",
            "outputs": [],
            "stateMutability": "payable",
            "type": "function"
        }
    ],
    "bytecode": "0x608060405234801561001057600080fd5b50336000806101000a81548173ffffffffffffffffffffffffffffffffffffffff021916908373ffffffffffffffffffffffffffffffffffffffff160217905550611f88806100606000396000f3fe6080604052600436106100865760003560e01c80638da5cb5b116100595780638da5cb5b146101295780639b085ab814610154578063af4afe0a1461017d578063e5b65cda146101c1578063f9af3946146101ec57610086565b80633d891f591461008b57806373bbe9ff146100c857806374d0a676146100e45780638c5909171461010d575b600080fd5b34801561009757600080fd5b506100b260048036038101906100ad9190610fe0565b610229565b6040516100bf919061102f565b60405180910390f35b6100e260048036038101906100dd919061104a565b61024e565b005b3480156100f057600080fd5b5061010b60048036038101906101069190610fe0565b61057d565b005b6101276004803603810190610122919061104a565b61072c565b005b34801561013557600080fd5b5061013e6108d6565b60405161014b9190611099565b60405180910390f35b34801561016057600080fd5b5061017b600480360381019061017691906112c2565b6108fa565b005b34801561018957600080fd5b506101a4600480360381019061019f919061137d565b610c38565b6040516101b8989796959493929190611444565b60405180910390f35b3480156101cd57600080fd5b506101d6610dbd565b6040516101e3919061102f565b60405180910390f35b3480156101f857600080fd5b50610213600480360381019061020e9190610fe0565b610dc3565b60405161022091906114d0565b60405180910390f35b6003602052816000526040600020602052806000526040600020600091509150505481565b816002600082815260200190815260200160002060010160009054906101000a900473ffffffffffffffffffffffffffffffffffffffff1673ffffffffffffffffffffffffffffffffffffffff163373ffffffffffffffffffffffffffffffffffffffff16146102f3576040517f08c379a00000000000000000000000000000000000000000000000000000000081526004016102ea9061155d565b60405180910390fd5b60006002600085815260200190815260200160002090506000831161034d576040517f08c379a0000000000000000000000000000000000000000000000000000000008152600401610344906115ef565b60405180910390fd5b8060040154831115610394576040517f08c379a000000000000000000000000000000000000000000000000000000000815260040161038b90611681565b60405180910390fd5b82816005015410156103db576040517f08c379a00000000000000000000000000000000000000000000000000000000081526004016103d2906116ed565b60405180910390fd5b60005b81600801805490508110156104895760008260080182815481106104055761040461170d565b5b9060005260206000200160009054906101000a900473ffffffffffffffffffffffffffffffffffffffff16905061043c8682610e85565b61047b576040517f08c379a0000000000000000000000000000000000000000000000000000000008152600401610472906117ae565b60405180910390fd5b5080806001019150506103de565b5060008160010160009054906101000a900473ffffffffffffffffffffffffffffffffffffffff1690508073ffffffffffffffffffffffffffffffffffffffff166108fc859081150290604051600060405180830381858888f193505050501580156104f9573d6000803e3d6000fd5b508382600501600082825461050e91906117fd565b92505081905550600082600501540361053f5760018260070160006101000a81548160ff0219169083151502179055505b7f0f645877fe838126f91b4e7f0c2002e96576b70d9d3483c64ad47a4c586fbf2b8560405161056e919061102f565b60405180910390a15050505050565b816002600082815260200190815260200160002060010160009054906101000a900473ffffffffffffffffffffffffffffffffffffffff1673ffffffffffffffffffffffffffffffffffffffff163373ffffffffffffffffffffffffffffffffffffffff1614610622576040517f08c379a00000000000000000000000000000000000000000000000000000000081526004016106199061155d565b60405180910390fd5b60026000848152602001908152602001600020600801829080600181540180825580915050600190039060005260206000200160009091909190916101000a81548173ffffffffffffffffffffffffffffffffffffffff021916908373ffffffffffffffffffffffffffffffffffffffff160217905550600260008481526020019081526020016000206008018054905060026000858152602001908152602001600020600401546106d49190611860565b60026000858152602001908152602001600020600601819055507ff328ac0f8bcae00933fe87ba0aa2d0d505c1df94bc9c1aa05b8441c28b74032c838360405161071f929190611891565b60405180910390a1505050565b600060026000848152602001908152602001600020905060008211610786576040517f08c379a000000000000000000000000000000000000000000000000000000000815260040161077d9061192c565b60405180910390fd5b6107908333610dc3565b6107cf576040517f08c379a00000000000000000000000000000000000000000000000000000000081526004016107c6906119be565b60405180910390fd5b80600601548214610815576040517f08c379a000000000000000000000000000000000000000000000000000000000815260040161080c90611a2a565b60405180910390fd5b816003600085815260200190815260200160002060003373ffffffffffffffffffffffffffffffffffffffff1673ffffffffffffffffffffffffffffffffffffffff16815260200190815260200160002060008282546108759190611a4a565b92505081905550818160050160008282546108909190611a4a565b92505081905550827f0a4a91237423e0a1766a761c7cb029311d8b95d6b1b81db1b949a70c98b4e08e33846040516108c9929190611a7e565b60405180910390a2505050565b60008054906101000a900473ffffffffffffffffffffffffffffffffffffffff1681565b6000821161093d576040517f08c379a000000000000000000000000000000000000000000000000000000000815260040161093490611b19565b60405180910390fd5b6000815111610981576040517f08c379a000000000000000000000000000000000000000000000000000000000815260040161097890611bab565b60405180910390fd5b6000600154905060008251846109979190611860565b90506040518061012001604052808381526020013373ffffffffffffffffffffffffffffffffffffffff1681526020018781526020018681526020018581526020016000815260200182815260200160001515815260200184815250600260008481526020019081526020016000206000820151816000015560208201518160010160006101000a81548173ffffffffffffffffffffffffffffffffffffffff021916908373ffffffffffffffffffffffffffffffffffffffff1602179055506040820151816002019081610a6c9190611dd7565b506060820151816003019081610a829190611dd7565b506080820151816004015560a0820151816005015560c0820151816006015560e08201518160070160006101000a81548160ff021916908315150217905550610100820151816008019080519060200190610ade929190610e91565b5090505060005b8351811015610b6b576000600360008581526020019081526020016000206000868481518110610b1857610b1761170d565b5b602002602001015173ffffffffffffffffffffffffffffffffffffffff1673ffffffffffffffffffffffffffffffffffffffff168152602001908152602001600020819055508080600101915050610ae5565b507fddca8423fbfb2a81d0e75a6619cdec5a678143186b82a891ffdb836b16e713328233888888604051610ba3959493929190611ea9565b60405180910390a160005b8351811015610c17577ff328ac0f8bcae00933fe87ba0aa2d0d505c1df94bc9c1aa05b8441c28b74032c83858381518110610bec57610beb61170d565b5b6020026020010151604051610c02929190611891565b60405180910390a18080600101915050610bae565b5060016000815480929190610c2b90611f0a565b9190505550505050505050565b60026020528060005260406000206000915090508060000154908060010160009054906101000a900473ffffffffffffffffffffffffffffffffffffffff1690806002018054610c8790611bfa565b80601f0160208091040260200160405190810160405280929190818152602001828054610cb390611bfa565b8015610d005780601f10610cd557610100808354040283529160200191610d00565b820191906000526020600020905b815481529060010190602001808311610ce357829003601f168201915b505050505090806003018054610d1590611bfa565b80601f0160208091040260200160405190810160405280929190818152602001828054610d4190611bfa565b8015610d8e5780601f10610d6357610100808354040283529160200191610d8e565b820191906000526020600020905b815481529060010190602001808311610d7157829003601f168201915b5050505050908060040154908060050154908060060154908060070160009054906101000a900460ff16905088565b60015481565b60008060026000858152602001908152602001600020905060005b8160080180549050811015610e78578373ffffffffffffffffffffffffffffffffffffffff16826008018281548110610e1a57610e1961170d565b5b9060005260206000200160009054906101000a900473ffffffffffffffffffffffffffffffffffffffff1673ffffffffffffffffffffffffffffffffffffffff1603610e6b57600192505050610e7f565b8080600101915050610dde565b5060009150505b92915050565b60006001905092915050565b828054828255906000526020600020908101928215610f0a579160200282015b82811115610f095782518260006101000a81548173ffffffffffffffffffffffffffffffffffffffff021916908373ffffffffffffffffffffffffffffffffffffffff16021790555091602001919060010190610eb1565b5b509050610f179190610f1b565b5090565b5b80821115610f34576000816000905550600101610f1c565b5090565b6000604051905090565b600080fd5b600080fd5b6000819050919050565b610f5f81610f4c565b8114610f6a57600080fd5b50565b600081359050610f7c81610f56565b92915050565b600073ffffffffffffffffffffffffffffffffffffffff82169050919050565b6000610fad82610f82565b9050919050565b610fbd81610fa2565b8114610fc857600080fd5b50565b600081359050610fda81610fb4565b92915050565b60008060408385031215610ff757610ff6610f42565b5b600061100585828601610f6d565b925050602061101685828601610fcb565b9150509250929050565b61102981610f4c565b82525050565b60006020820190506110446000830184611020565b92915050565b6000806040838503121561106157611060610f42565b5b600061106f85828601610f6d565b925050602061108085828601610f6d565b9150509250929050565b61109381610fa2565b82525050565b60006020820190506110ae600083018461108a565b92915050565b600080fd5b600080fd5b6000601f19601f8301169050919050565b7f4e487b7100000000000000000000000000000000000000000000000000000000600052604160045260246000fd5b611107826110be565b810181811067ffffffffffffffff82111715611126576111256110cf565b5b80604052505050565b6000611139610f38565b905061114582826110fe565b919050565b600067ffffffffffffffff821115611165576111646110cf565b5b61116e826110be565b9050602081019050919050565b82818337600083830152505050565b600061119d6111988461114a565b61112f565b9050828152602081018484840111156111b9576111b86110b9565b5b6111c484828561117b565b509392505050565b600082601f8301126111e1576111e06110b4565b5b81356111f184826020860161118a565b91505092915050565b600067ffffffffffffffff821115611215576112146110cf565b5b602082029050602081019050919050565b600080fd5b600061123e611239846111fa565b61112f565b9050808382526020820190506020840283018581111561126157611260611226565b5b835b8181101561128a57806112768882610fcb565b845260208401935050602081019050611263565b5050509392505050565b600082601f8301126112a9576112a86110b4565b5b81356112b984826020860161122b565b91505092915050565b600080600080608085870312156112dc576112db610f42565b5b600085013567ffffffffffffffff8111156112fa576112f9610f47565b5b611306878288016111cc565b945050602085013567ffffffffffffffff81111561132757611326610f47565b5b611333878288016111cc565b935050604061134487828801610f6d565b925050606085013567ffffffffffffffff81111561136557611364610f47565b5b61137187828801611294565b91505092959194509250565b60006020828403121561139357611392610f42565b5b60006113a184828501610f6d565b91505092915050565b600081519050919050565b600082825260208201905092915050565b60005b838110156113e45780820151818401526020810190506113c9565b60008484015250505050565b60006113fb826113aa565b61140581856113b5565b93506114158185602086016113c6565b61141e816110be565b840191505092915050565b60008115159050919050565b61143e81611429565b82525050565b60006101008201905061145a600083018b611020565b611467602083018a61108a565b818103604083015261147981896113f0565b9050818103606083015261148d81886113f0565b905061149c6080830187611020565b6114a960a0830186611020565b6114b660c0830185611020565b6114c360e0830184611435565b9998505050505050505050565b60006020820190506114e56000830184611435565b92915050565b7f4f6e6c792074686520657870656e73652063726561746f722063616e2070657260008201527f666f726d207468697320616374696f6e00000000000000000000000000000000602082015250565b60006115476030836113b5565b9150611552826114eb565b604082019050919050565b600060208201905081810360008301526115768161153a565b9050919050565b7f5769746864726177616c20616d6f756e74206d7573742062652067726561746560008201527f72207468616e207a65726f000000000000000000000000000000000000000000602082015250565b60006115d9602b836113b5565b91506115e48261157d565b604082019050919050565b60006020820190508181036000830152611608816115cc565b9050919050565b7f5769746864726177616c20616d6f756e7420657863656564732074686520746160008201527f7267657420616d6f756e74000000000000000000000000000000000000000000602082015250565b600061166b602b836113b5565b91506116768261160f565b604082019050919050565b6000602082019050818103600083015261169a8161165e565b9050919050565b7f496e73756666696369656e742066756e647320636f6e74726962757465640000600082015250565b60006116d7601e836113b5565b91506116e2826116a1565b602082019050919050565b60006020820190508181036000830152611706816116ca565b9050919050565b7f4e487b7100000000000000000000000000000000000000000000000000000000600052603260045260246000fd5b7f4d656d62657220646964206e6f7420617070726f76652077697468647261776160008201527f6c00000000000000000000000000000000000000000000000000000000000000602082015250565b60006117986021836113b5565b91506117a38261173c565b604082019050919050565b600060208201905081810360008301526117c78161178b565b9050919050565b7f4e487b7100000000000000000000000000000000000000000000000000000000600052601160045260246000fd5b600061180882610f4c565b915061181383610f4c565b925082820390508181111561182b5761182a6117ce565b5b92915050565b7f4e487b7100000000000000000000000000000000000000000000000000000000600052601260045260246000fd5b600061186b82610f4c565b915061187683610f4c565b92508261188657611885611831565b5b828204905092915050565b60006040820190506118a66000830185611020565b6118b3602083018461108a565b9392505050565b7f436f6e747269627574696f6e20616d6f756e74206d757374206265206772656160008201527f746572207468616e207a65726f00000000000000000000000000000000000000602082015250565b6000611916602d836113b5565b9150611921826118ba565b604082019050919050565b6000602082019050818103600083015261194581611909565b9050919050565b7f43616c6c6572206973206e6f742061206d656d626572206f662074686520657860008201527f70656e7365000000000000000000000000000000000000000000000000000000602082015250565b60006119a86025836113b5565b91506119b38261194c565b604082019050919050565b600060208201905081810360008301526119d78161199b565b9050919050565b7f496e636f727265637420636f6e747269627574696f6e20616d6f756e74000000600082015250565b6000611a14601d836113b5565b9150611a1f826119de565b602082019050919050565b60006020820190508181036000830152611a4381611a07565b9050919050565b6000611a5582610f4c565b9150611a6083610f4c565b9250828201905080821115611a7857611a776117ce565b5b92915050565b6000604082019050611a93600083018561108a565b611aa06020830184611020565b9392505050565b7f54617267657420616d6f756e74206d757374206265206772656174657220746860008201527f616e207a65726f00000000000000000000000000000000000000000000000000602082015250565b6000611b036027836113b5565b9150611b0e82611aa7565b604082019050919050565b60006020820190508181036000830152611b3281611af6565b9050919050565b7f457870656e7365206d7573742068617665206174206c65617374206f6e65206d60008201527f656d626572000000000000000000000000000000000000000000000000000000602082015250565b6000611b956025836113b5565b9150611ba082611b39565b604082019050919050565b60006020820190508181036000830152611bc481611b88565b9050919050565b7f4e487b7100000000000000000000000000000000000000000000000000000000600052602260045260246000fd5b60006002820490506001821680611c1257607f821691505b602082108103611c2557611c24611bcb565b5b50919050565b60008190508160005260206000209050919050565b60006020601f8301049050919050565b600082821b905092915050565b600060088302611c8d7fffffffffffffffffffffffffffffffffffffffffffffffffffffffffffffffff82611c50565b611c978683611c50565b95508019841693508086168417925050509392505050565b6000819050919050565b6000611cd4611ccf611cca84610f4c565b611caf565b610f4c565b9050919050565b6000819050919050565b611cee83611cb9565b611d02611cfa82611cdb565b848454611c5d565b825550505050565b600090565b611d17611d0a565b611d22818484611ce5565b505050565b5b81811015611d4657611d3b600082611d0f565b600181019050611d28565b5050565b601f821115611d8b57611d5c81611c2b565b611d6584611c40565b81016020851015611d74578190505b611d88611d8085611c40565b830182611d27565b50505b505050565b600082821c905092915050565b6000611dae60001984600802611d90565b1980831691505092915050565b6000611dc78383611d9d565b9150826002028217905092915050565b611de0826113aa565b67ffffffffffffffff811115611df957611df86110cf565b5b611e038254611bfa565b611e0e828285611d4a565b600060209050601f831160018114611e415760008415611e2f578287015190505b611e398582611dbb565b865550611ea1565b601f198416611e4f86611c2b565b60005b82811015611e7757848901518255600182019150602085019450602081019050611e52565b86831015611e945784890151611e90601f891682611d9d565b8355505b6001600288020188555050505b505050505050565b600060a082019050611ebe6000830188611020565b611ecb602083018761108a565b8181036040830152611edd81866113f0565b90508181036060830152611ef181856113f0565b9050611f006080830184611020565b9695505050505050565b6000611f1582610f4c565b91507fffffffffffffffffffffffffffffffffffffffffffffffffffffffffffffffff8203611f4757611f466117ce565b5b60018201905091905056fea2646970667358221220b9a5df6dbd72fb092455eac78815a6e35dd0a0f02dacc83c148494de0456ec2c64736f6c63430008180033",
    "linkReferences": {},
    "deployedLinkReferences": {}
}